{
  "contractName": "Voting",
  "abi": [
    {
      "inputs": [],
      "stateMutability": "nonpayable",
      "type": "constructor"
    },
    {
      "inputs": [],
      "name": "admin",
      "outputs": [
        {
          "internalType": "address",
          "name": "",
          "type": "address"
        }
      ],
      "stateMutability": "view",
      "type": "function",
      "constant": true
    },
    {
      "inputs": [
        {
          "internalType": "uint256",
          "name": "",
          "type": "uint256"
        }
      ],
      "name": "candidates",
      "outputs": [
        {
          "internalType": "uint256",
          "name": "id",
          "type": "uint256"
        },
        {
          "internalType": "string",
          "name": "name",
          "type": "string"
        },
        {
          "internalType": "string",
          "name": "party",
          "type": "string"
        },
        {
          "internalType": "uint256",
          "name": "voteCount",
          "type": "uint256"
        }
      ],
      "stateMutability": "view",
      "type": "function",
      "constant": true
    },
    {
      "inputs": [],
      "name": "candidatesCount",
      "outputs": [
        {
          "internalType": "uint256",
          "name": "",
          "type": "uint256"
        }
      ],
      "stateMutability": "view",
      "type": "function",
      "constant": true
    },
    {
      "inputs": [],
      "name": "maxVotes",
      "outputs": [
        {
          "internalType": "uint256",
          "name": "",
          "type": "uint256"
        }
      ],
      "stateMutability": "view",
      "type": "function",
      "constant": true
    },
    {
      "inputs": [
        {
          "internalType": "uint256",
          "name": "",
          "type": "uint256"
        }
      ],
      "name": "voterAddresses",
      "outputs": [
        {
          "internalType": "address",
          "name": "",
          "type": "address"
        }
      ],
      "stateMutability": "view",
      "type": "function",
      "constant": true
    },
    {
      "inputs": [
        {
          "internalType": "address",
          "name": "",
          "type": "address"
        }
      ],
      "name": "voters",
      "outputs": [
        {
          "internalType": "string",
          "name": "fullName",
          "type": "string"
        },
        {
          "internalType": "bool",
          "name": "isRegistered",
          "type": "bool"
        },
        {
          "internalType": "bool",
          "name": "hasVoted",
          "type": "bool"
        }
      ],
      "stateMutability": "view",
      "type": "function",
      "constant": true
    },
    {
      "inputs": [
        {
          "internalType": "string",
          "name": "_name",
          "type": "string"
        },
        {
          "internalType": "string",
          "name": "_party",
          "type": "string"
        }
      ],
      "name": "addCandidate",
      "outputs": [],
      "stateMutability": "nonpayable",
      "type": "function"
    },
    {
      "inputs": [
        {
          "internalType": "address",
          "name": "_voterAddress",
          "type": "address"
        },
        {
          "internalType": "string",
          "name": "_fullname",
          "type": "string"
        }
      ],
      "name": "registerVoter",
      "outputs": [],
      "stateMutability": "nonpayable",
      "type": "function"
    },
    {
      "inputs": [],
      "name": "authenticateVoter",
      "outputs": [
        {
          "internalType": "bool",
          "name": "",
          "type": "bool"
        }
      ],
      "stateMutability": "view",
      "type": "function",
      "constant": true
    },
    {
      "inputs": [
        {
          "internalType": "uint256[]",
          "name": "_candidateIds",
          "type": "uint256[]"
        }
      ],
      "name": "vote",
      "outputs": [],
      "stateMutability": "nonpayable",
      "type": "function"
    },
    {
      "inputs": [
        {
          "internalType": "uint256",
          "name": "_candidateId",
          "type": "uint256"
        }
      ],
      "name": "getCandidate",
      "outputs": [
        {
          "internalType": "uint256",
          "name": "",
          "type": "uint256"
        },
        {
          "internalType": "string",
          "name": "",
          "type": "string"
        },
        {
          "internalType": "uint256",
          "name": "",
          "type": "uint256"
        }
      ],
      "stateMutability": "view",
      "type": "function",
      "constant": true
    },
    {
      "inputs": [],
      "name": "getAllCandidates",
      "outputs": [
        {
          "components": [
            {
              "internalType": "uint256",
              "name": "id",
              "type": "uint256"
            },
            {
              "internalType": "string",
              "name": "name",
              "type": "string"
            },
            {
              "internalType": "string",
              "name": "party",
              "type": "string"
            },
            {
              "internalType": "uint256",
              "name": "voteCount",
              "type": "uint256"
            }
          ],
          "internalType": "struct Voting.Candidate[]",
          "name": "",
          "type": "tuple[]"
        }
      ],
      "stateMutability": "view",
      "type": "function",
      "constant": true
    },
    {
      "inputs": [
        {
          "internalType": "address",
          "name": "_voterAddress",
          "type": "address"
        }
      ],
      "name": "getVoter",
      "outputs": [
        {
          "internalType": "string",
          "name": "",
          "type": "string"
        },
        {
          "internalType": "bool",
          "name": "",
          "type": "bool"
        },
        {
          "internalType": "bool",
          "name": "",
          "type": "bool"
        }
      ],
      "stateMutability": "view",
      "type": "function",
      "constant": true
    },
    {
      "inputs": [],
      "name": "getAllVoters",
      "outputs": [
        {
          "components": [
            {
              "internalType": "string",
              "name": "fullName",
              "type": "string"
            },
            {
              "internalType": "bool",
              "name": "isRegistered",
              "type": "bool"
            },
            {
              "internalType": "bool",
              "name": "hasVoted",
              "type": "bool"
            }
          ],
          "internalType": "struct Voting.Voter[]",
          "name": "",
          "type": "tuple[]"
        }
      ],
      "stateMutability": "view",
      "type": "function",
      "constant": true
    }
  ],
  "bytecode": "0x608060405234801561001057600080fd5b506002600481905550600060038190555033600560006101000a81548173ffffffffffffffffffffffffffffffffffffffff021916908373ffffffffffffffffffffffffffffffffffffffff16021790555061206c806100716000396000f3fe608060405234801561001057600080fd5b50600436106100ea5760003560e01c8063777c3acf1161008c578063d4f50f9811610066578063d4f50f9814610254578063dd0e237314610286578063ebbb4f84146102b6578063f851a440146102d2576100ea565b8063777c3acf146101e8578063a3ec138d14610206578063ce11f2bb14610238576100ea565b80632e6997fe116100c85780632e6997fe146101475780633477ee2e1461016557806335b8e8201461019857806335bbe70e146101ca576100ea565b806326541b56146100ef57806329db6b511461010b5780632d35a8a214610129575b600080fd5b610109600480360381019061010491906115cb565b6102f0565b005b610113610425565b6040516101209190611b54565b60405180910390f35b6101316104bd565b60405161013e9190611c8d565b60405180910390f35b61014f6104c3565b60405161015c9190611b10565b60405180910390f35b61017f600480360381019061017a9190611637565b610706565b60405161018f9493929190611ca8565b60405180910390f35b6101b260048036038101906101ad9190611637565b610846565b6040516101c193929190611cfb565b60405180910390f35b6101d26109c1565b6040516101df9190611b32565b60405180910390f35b6101f0610c2b565b6040516101fd9190611c8d565b60405180910390f35b610220600480360381019061021b919061150d565b610c31565b60405161022f93929190611b6f565b60405180910390f35b610252600480360381019061024d919061158a565b610cfd565b005b61026e6004803603810190610269919061150d565b610fa1565b60405161027d93929190611b6f565b60405180910390f35b6102a0600480360381019061029b9190611637565b6110d9565b6040516102ad9190611af5565b60405180910390f35b6102d060048036038101906102cb9190611536565b611118565b005b6102da6112cf565b6040516102e79190611af5565b60405180910390f35b600560009054906101000a900473ffffffffffffffffffffffffffffffffffffffff1673ffffffffffffffffffffffffffffffffffffffff163373ffffffffffffffffffffffffffffffffffffffff1614610380576040517f08c379a000000000000000000000000000000000000000000000000000000000815260040161037790611bed565b60405180910390fd5b60405180608001604052806003548152602001838152602001828152602001600081525060008060035481526020019081526020016000206000820151816000015560208201518160010190805190602001906103de9291906112f5565b5060408201518160020190805190602001906103fb9291906112f5565b50606082015181600301559050506003600081548092919061041c90611f21565b91905055505050565b6000600160003373ffffffffffffffffffffffffffffffffffffffff1673ffffffffffffffffffffffffffffffffffffffff16815260200190815260200160002060010160009054906101000a900460ff166104b6576040517f08c379a00000000000000000000000000000000000000000000000000000000081526004016104ad90611c4d565b60405180910390fd5b6001905090565b60035481565b6060600060035467ffffffffffffffff811115610509577f4e487b7100000000000000000000000000000000000000000000000000000000600052604160045260246000fd5b60405190808252806020026020018201604052801561054257816020015b61052f61137b565b8152602001906001900390816105275790505b50905060005b6003548110156106fe576000808281526020019081526020016000206040518060800160405290816000820154815260200160018201805461058990611eef565b80601f01602080910402602001604051908101604052809291908181526020018280546105b590611eef565b80156106025780601f106105d757610100808354040283529160200191610602565b820191906000526020600020905b8154815290600101906020018083116105e557829003601f168201915b5050505050815260200160028201805461061b90611eef565b80601f016020809104026020016040519081016040528092919081815260200182805461064790611eef565b80156106945780601f1061066957610100808354040283529160200191610694565b820191906000526020600020905b81548152906001019060200180831161067757829003601f168201915b505050505081526020016003820154815250508282815181106106e0577f4e487b7100000000000000000000000000000000000000000000000000000000600052603260045260246000fd5b602002602001018190525080806106f690611f21565b915050610548565b508091505090565b600060205280600052604060002060009150905080600001549080600101805461072f90611eef565b80601f016020809104026020016040519081016040528092919081815260200182805461075b90611eef565b80156107a85780601f1061077d576101008083540402835291602001916107a8565b820191906000526020600020905b81548152906001019060200180831161078b57829003601f168201915b5050505050908060020180546107bd90611eef565b80601f01602080910402602001604051908101604052809291908181526020018280546107e990611eef565b80156108365780601f1061080b57610100808354040283529160200191610836565b820191906000526020600020905b81548152906001019060200180831161081957829003601f168201915b5050505050908060030154905084565b600060606000806000808681526020019081526020016000206040518060800160405290816000820154815260200160018201805461088490611eef565b80601f01602080910402602001604051908101604052809291908181526020018280546108b090611eef565b80156108fd5780601f106108d2576101008083540402835291602001916108fd565b820191906000526020600020905b8154815290600101906020018083116108e057829003601f168201915b5050505050815260200160028201805461091690611eef565b80601f016020809104026020016040519081016040528092919081815260200182805461094290611eef565b801561098f5780601f106109645761010080835404028352916020019161098f565b820191906000526020600020905b81548152906001019060200180831161097257829003601f168201915b505050505081526020016003820154815250509050806000015181602001518260600151935093509350509193909250565b6060600060028054905067ffffffffffffffff811115610a0a577f4e487b7100000000000000000000000000000000000000000000000000000000600052604160045260246000fd5b604051908082528060200260200182016040528015610a4357816020015b610a306113a3565b815260200190600190039081610a285790505b50905060005b600280549050811015610c23576001600060028381548110610a94577f4e487b7100000000000000000000000000000000000000000000000000000000600052603260045260246000fd5b9060005260206000200160009054906101000a900473ffffffffffffffffffffffffffffffffffffffff1673ffffffffffffffffffffffffffffffffffffffff1673ffffffffffffffffffffffffffffffffffffffff168152602001908152602001600020604051806060016040529081600082018054610b1490611eef565b80601f0160208091040260200160405190810160405280929190818152602001828054610b4090611eef565b8015610b8d5780601f10610b6257610100808354040283529160200191610b8d565b820191906000526020600020905b815481529060010190602001808311610b7057829003601f168201915b505050505081526020016001820160009054906101000a900460ff161515151581526020016001820160019054906101000a900460ff161515151581525050828281518110610c05577f4e487b7100000000000000000000000000000000000000000000000000000000600052603260045260246000fd5b60200260200101819052508080610c1b90611f21565b915050610a49565b508091505090565b60045481565b6001602052806000526040600020600091509050806000018054610c5490611eef565b80601f0160208091040260200160405190810160405280929190818152602001828054610c8090611eef565b8015610ccd5780601f10610ca257610100808354040283529160200191610ccd565b820191906000526020600020905b815481529060010190602001808311610cb057829003601f168201915b5050505050908060010160009054906101000a900460ff16908060010160019054906101000a900460ff16905083565b600160003373ffffffffffffffffffffffffffffffffffffffff1673ffffffffffffffffffffffffffffffffffffffff16815260200190815260200160002060010160009054906101000a900460ff16610d8c576040517f08c379a0000000000000000000000000000000000000000000000000000000008152600401610d8390611c0d565b60405180910390fd5b600160003373ffffffffffffffffffffffffffffffffffffffff1673ffffffffffffffffffffffffffffffffffffffff16815260200190815260200160002060010160019054906101000a900460ff1615610e1c576040517f08c379a0000000000000000000000000000000000000000000000000000000008152600401610e1390611bad565b60405180910390fd5b60045481511115610e62576040517f08c379a0000000000000000000000000000000000000000000000000000000008152600401610e5990611c2d565b60405180910390fd5b60005b8151811015610f43576000828281518110610ea9577f4e487b7100000000000000000000000000000000000000000000000000000000600052603260045260246000fd5b6020026020010151905060008110158015610ec5575060035481105b610f04576040517f08c379a0000000000000000000000000000000000000000000000000000000008152600401610efb90611c6d565b60405180910390fd5b6000808281526020019081526020016000206003016000815480929190610f2a90611f21565b9190505550508080610f3b90611f21565b915050610e65565b5060018060003373ffffffffffffffffffffffffffffffffffffffff1673ffffffffffffffffffffffffffffffffffffffff16815260200190815260200160002060010160016101000a81548160ff02191690831515021790555050565b60606000806000600160008673ffffffffffffffffffffffffffffffffffffffff1673ffffffffffffffffffffffffffffffffffffffff16815260200190815260200160002060405180606001604052908160008201805461100290611eef565b80601f016020809104026020016040519081016040528092919081815260200182805461102e90611eef565b801561107b5780601f106110505761010080835404028352916020019161107b565b820191906000526020600020905b81548152906001019060200180831161105e57829003601f168201915b505050505081526020016001820160009054906101000a900460ff161515151581526020016001820160019054906101000a900460ff1615151515815250509050806000015181602001518260400151935093509350509193909250565b600281815481106110e957600080fd5b906000526020600020016000915054906101000a900473ffffffffffffffffffffffffffffffffffffffff1681565b600160008373ffffffffffffffffffffffffffffffffffffffff1673ffffffffffffffffffffffffffffffffffffffff16815260200190815260200160002060010160009054906101000a900460ff16156111a8576040517f08c379a000000000000000000000000000000000000000000000000000000000815260040161119f90611bcd565b60405180910390fd5b604051806060016040528082815260200160011515815260200160001515815250600160008473ffffffffffffffffffffffffffffffffffffffff1673ffffffffffffffffffffffffffffffffffffffff16815260200190815260200160002060008201518160000190805190602001906112249291906112f5565b5060208201518160010160006101000a81548160ff02191690831515021790555060408201518160010160016101000a81548160ff0219169083151502179055509050506002829080600181540180825580915050600190039060005260206000200160009091909190916101000a81548173ffffffffffffffffffffffffffffffffffffffff021916908373ffffffffffffffffffffffffffffffffffffffff1602179055505050565b600560009054906101000a900473ffffffffffffffffffffffffffffffffffffffff1681565b82805461130190611eef565b90600052602060002090601f016020900481019282611323576000855561136a565b82601f1061133c57805160ff191683800117855561136a565b8280016001018555821561136a579182015b8281111561136957825182559160200191906001019061134e565b5b50905061137791906113c8565b5090565b6040518060800160405280600081526020016060815260200160608152602001600081525090565b6040518060600160405280606081526020016000151581526020016000151581525090565b5b808211156113e15760008160009055506001016113c9565b5090565b60006113f86113f384611d6a565b611d39565b9050808382526020820190508285602086028201111561141757600080fd5b60005b85811015611447578161142d88826114f8565b84526020840193506020830192505060018101905061141a565b5050509392505050565b600061146461145f84611d96565b611d39565b90508281526020810184848401111561147c57600080fd5b611487848285611ead565b509392505050565b60008135905061149e81612008565b92915050565b600082601f8301126114b557600080fd5b81356114c58482602086016113e5565b91505092915050565b600082601f8301126114df57600080fd5b81356114ef848260208601611451565b91505092915050565b6000813590506115078161201f565b92915050565b60006020828403121561151f57600080fd5b600061152d8482850161148f565b91505092915050565b6000806040838503121561154957600080fd5b60006115578582860161148f565b925050602083013567ffffffffffffffff81111561157457600080fd5b611580858286016114ce565b9150509250929050565b60006020828403121561159c57600080fd5b600082013567ffffffffffffffff8111156115b657600080fd5b6115c2848285016114a4565b91505092915050565b600080604083850312156115de57600080fd5b600083013567ffffffffffffffff8111156115f857600080fd5b611604858286016114ce565b925050602083013567ffffffffffffffff81111561162157600080fd5b61162d858286016114ce565b9150509250929050565b60006020828403121561164957600080fd5b6000611657848285016114f8565b91505092915050565b600061166c8383611a1d565b905092915050565b60006116808383611a87565b905092915050565b61169181611e65565b82525050565b60006116a282611de6565b6116ac8185611e21565b9350836020820285016116be85611dc6565b8060005b858110156116fa57848403895281516116db8582611660565b94506116e683611e07565b925060208a019950506001810190506116c2565b50829750879550505050505092915050565b600061171782611df1565b6117218185611e32565b93508360208202850161173385611dd6565b8060005b8581101561176f57848403895281516117508582611674565b945061175b83611e14565b925060208a01995050600181019050611737565b50829750879550505050505092915050565b61178a81611e77565b82525050565b61179981611e77565b82525050565b60006117aa82611dfc565b6117b48185611e43565b93506117c4818560208601611ebc565b6117cd81611ff7565b840191505092915050565b60006117e382611dfc565b6117ed8185611e54565b93506117fd818560208601611ebc565b61180681611ff7565b840191505092915050565b600061181e601783611e54565b91507f596f75206861766520616c726561647920766f7465642e0000000000000000006000830152602082019050919050565b600061185e601983611e54565b91507f566f74657220616c726561647920726567697374657265642e000000000000006000830152602082019050919050565b600061189e602383611e54565b91507f4f6e6c792061646d696e2063616e20706572666f726d2074686973206163746960008301527f6f6e2e00000000000000000000000000000000000000000000000000000000006020830152604082019050919050565b6000611904601f83611e54565b91507f596f7520617265206e6f74207265676973746572656420746f20766f74652e006000830152602082019050919050565b6000611944602183611e54565b91507f4578636565646564206d6178696d756d206e756d626572206f6620766f74657360008301527f2e000000000000000000000000000000000000000000000000000000000000006020830152604082019050919050565b60006119aa601583611e54565b91507f566f746572206e6f7420726567697374657265642e00000000000000000000006000830152602082019050919050565b60006119ea601583611e54565b91507f496e76616c69642063616e6469646174652049442e00000000000000000000006000830152602082019050919050565b6000608083016000830151611a356000860182611ad7565b5060208301518482036020860152611a4d828261179f565b91505060408301518482036040860152611a67828261179f565b9150506060830151611a7c6060860182611ad7565b508091505092915050565b60006060830160008301518482036000860152611aa4828261179f565b9150506020830151611ab96020860182611781565b506040830151611acc6040860182611781565b508091505092915050565b611ae081611ea3565b82525050565b611aef81611ea3565b82525050565b6000602082019050611b0a6000830184611688565b92915050565b60006020820190508181036000830152611b2a8184611697565b905092915050565b60006020820190508181036000830152611b4c818461170c565b905092915050565b6000602082019050611b696000830184611790565b92915050565b60006060820190508181036000830152611b8981866117d8565b9050611b986020830185611790565b611ba56040830184611790565b949350505050565b60006020820190508181036000830152611bc681611811565b9050919050565b60006020820190508181036000830152611be681611851565b9050919050565b60006020820190508181036000830152611c0681611891565b9050919050565b60006020820190508181036000830152611c26816118f7565b9050919050565b60006020820190508181036000830152611c4681611937565b9050919050565b60006020820190508181036000830152611c668161199d565b9050919050565b60006020820190508181036000830152611c86816119dd565b9050919050565b6000602082019050611ca26000830184611ae6565b92915050565b6000608082019050611cbd6000830187611ae6565b8181036020830152611ccf81866117d8565b90508181036040830152611ce381856117d8565b9050611cf26060830184611ae6565b95945050505050565b6000606082019050611d106000830186611ae6565b8181036020830152611d2281856117d8565b9050611d316040830184611ae6565b949350505050565b6000604051905081810181811067ffffffffffffffff82111715611d6057611d5f611fc8565b5b8060405250919050565b600067ffffffffffffffff821115611d8557611d84611fc8565b5b602082029050602081019050919050565b600067ffffffffffffffff821115611db157611db0611fc8565b5b601f19601f8301169050602081019050919050565b6000819050602082019050919050565b6000819050602082019050919050565b600081519050919050565b600081519050919050565b600081519050919050565b6000602082019050919050565b6000602082019050919050565b600082825260208201905092915050565b600082825260208201905092915050565b600082825260208201905092915050565b600082825260208201905092915050565b6000611e7082611e83565b9050919050565b60008115159050919050565b600073ffffffffffffffffffffffffffffffffffffffff82169050919050565b6000819050919050565b82818337600083830152505050565b60005b83811015611eda578082015181840152602081019050611ebf565b83811115611ee9576000848401525b50505050565b60006002820490506001821680611f0757607f821691505b60208210811415611f1b57611f1a611f99565b5b50919050565b6000611f2c82611ea3565b91507fffffffffffffffffffffffffffffffffffffffffffffffffffffffffffffffff821415611f5f57611f5e611f6a565b5b600182019050919050565b7f4e487b7100000000000000000000000000000000000000000000000000000000600052601160045260246000fd5b7f4e487b7100000000000000000000000000000000000000000000000000000000600052602260045260246000fd5b7f4e487b7100000000000000000000000000000000000000000000000000000000600052604160045260246000fd5b6000601f19601f8301169050919050565b61201181611e65565b811461201c57600080fd5b50565b61202881611ea3565b811461203357600080fd5b5056fea2646970667358221220bfd3f44bdcc0aa09b74632c55a1310e683b5c6d5e7988fddb2336e4f03c3ec6264736f6c63430008000033",
  "immutableReferences": {},
  "source": "// SPDX-License-Identifier: MIT\r\npragma solidity ^0.8.0;\r\n\r\ncontract Voting {\r\n    struct Candidate {\r\n        uint id;\r\n        string name;\r\n        string party;\r\n        uint voteCount;\r\n    }\r\n\r\n    struct Voter {\r\n        string fullName;\r\n        bool isRegistered;\r\n        bool hasVoted;\r\n    }\r\n\r\n    mapping(uint => Candidate) public candidates;\r\n    mapping(address => Voter) public voters;\r\n    address[] public voterAddresses;\r\n    uint public candidatesCount;\r\n    uint public maxVotes;\r\n\r\n    address public admin;\r\n\r\n    modifier onlyAdmin() {\r\n        require(msg.sender == admin, \"Only admin can perform this action.\");\r\n        _;\r\n    }\r\n\r\n    constructor() {\r\n        maxVotes = 2;\r\n        candidatesCount = 0;\r\n        admin = msg.sender; // Assign the deployer as admin\r\n    }\r\n\r\n    // Add a new candidate (admin-only)\r\n    function addCandidate(\r\n        string memory _name,\r\n        string memory _party\r\n    ) public onlyAdmin {\r\n        candidates[candidatesCount] = Candidate(\r\n            candidatesCount,\r\n            _name,\r\n            _party,\r\n            0\r\n        );\r\n        candidatesCount++;\r\n    }\r\n\r\n    function registerVoter(\r\n        address _voterAddress,\r\n        string memory _fullname\r\n    ) public {\r\n        require(\r\n            !voters[_voterAddress].isRegistered,\r\n            \"Voter already registered.\"\r\n        );\r\n\r\n        voters[_voterAddress] = Voter({\r\n            fullName: _fullname,\r\n            isRegistered: true,\r\n            hasVoted: false\r\n        });\r\n\r\n        voterAddresses.push(_voterAddress);\r\n    }\r\n\r\n    // Authenticate voter by comparing password hashes\r\n    function authenticateVoter() public view returns (bool) {\r\n        require(voters[msg.sender].isRegistered, \"Voter not registered.\");\r\n        return true;\r\n    }\r\n\r\n    modifier onlyRegisteredVoter() {\r\n        require(\r\n            voters[msg.sender].isRegistered,\r\n            \"You are not registered to vote.\"\r\n        );\r\n        _;\r\n    }\r\n\r\n    function vote(uint[] memory _candidateIds) public onlyRegisteredVoter {\r\n        require(!voters[msg.sender].hasVoted, \"You have already voted.\");\r\n        require(\r\n            _candidateIds.length <= maxVotes,\r\n            \"Exceeded maximum number of votes.\"\r\n        );\r\n\r\n\r\n        // Ensure the voter has not already voted for these candidates\r\n        for (uint i = 0; i < _candidateIds.length; i++) {\r\n            uint candidateId = _candidateIds[i];\r\n            require(\r\n                candidateId >= 0 && candidateId < candidatesCount,\r\n                \"Invalid candidate ID.\"\r\n            );\r\n            // Record the vote\r\n            candidates[candidateId].voteCount++;\r\n        }\r\n       voters[msg.sender].hasVoted = true; \r\n    }\r\n\r\n    // function hasAlreadyVoted(\r\n    //     uint[] memory votedCandidates,\r\n    //     uint candidateId\r\n    // ) internal pure returns (bool) {\r\n    //     for (uint i = 0; i < votedCandidates.length; i++) {\r\n    //         if (votedCandidates[i] == candidateId) {\r\n    //             return true;\r\n    //         }\r\n    //     }\r\n    //     return false;\r\n    // }\r\n\r\n    // function vote(string memory _username, uint _candidateId) public onlyAdmin {\r\n    //     require(voters[_username].isRegistered, \"Voter not registered.\");\r\n    //     require(!voters[_username].hasVoted, \"Voter has already voted.\");\r\n    //     require(\r\n    //         _candidateId > 0 && _candidateId <= candidatesCount,\r\n    //         \"Invalid candidate ID.\"\r\n    //     );\r\n\r\n    //     voters[_username].hasVoted = true;\r\n    //     candidates[_candidateId].voteCount++;\r\n    // }\r\n\r\n    function getCandidate(\r\n        uint _candidateId\r\n    ) public view returns (uint, string memory, uint) {\r\n        Candidate memory candidate = candidates[_candidateId];\r\n        return (candidate.id, candidate.name, candidate.voteCount);\r\n    }\r\n\r\n    function getAllCandidates() public view returns (Candidate[] memory) {\r\n        Candidate[] memory allCandidates = new Candidate[](candidatesCount);\r\n        for (uint i = 0; i < candidatesCount; i++) {\r\n            allCandidates[i] = candidates[i];\r\n        }\r\n        return allCandidates;\r\n    }\r\n\r\n    // function getVoter(\r\n    //     string memory _username\r\n    // ) public view returns (string memory, string memory, bool, bool) {\r\n    //     Voter memory voter = voters[_username];\r\n    //     return (\r\n    //         voter.username,\r\n    //         voter.fullName,\r\n    //         voter.hasVoted,\r\n    //         voter.isRegistered\r\n    //     );\r\n    // }\r\n\r\n     function getVoter(address _voterAddress) public view returns (string memory, bool, bool) {\r\n        Voter memory voter = voters[_voterAddress];\r\n        return (voter.fullName, voter.isRegistered, voter.hasVoted);\r\n    }\r\n\r\n    function getAllVoters() public view returns (Voter[] memory) {\r\n        Voter[] memory allVoters = new Voter[](voterAddresses.length);\r\n        for (uint i = 0; i < voterAddresses.length; i++) {\r\n            allVoters[i] = voters[voterAddresses[i]];\r\n        }\r\n        return allVoters;\r\n    }\r\n}\r\n",
  "sourcePath": "C:\\Users\\micha\\Desktop\\blockchain_assignment\\contracts\\Voting.sol",
  "compiler": {
    "name": "solc",
    "version": "0.8.0+commit.c7dfd78e.Emscripten.clang"
  },
  "schemaVersion": "3.4.16",
  "updatedAt": "2024-12-23T10:22:26.317Z",
  "networkType": "ethereum",
  "devdoc": {
    "kind": "dev",
    "methods": {},
    "version": 1
  },
  "userdoc": {
    "kind": "user",
    "methods": {},
    "version": 1
  }
}