{
    "_format": "hh-sol-artifact-1",
    "contractName": "Voting",
    "sourceName": "contracts/Voting.sol",
    "abi": [
        {
            "inputs": [],
            "stateMutability": "nonpayable",
            "type": "constructor"
        },
        {
            "inputs": [
                {
                    "internalType": "string",
                    "name": "_name",
                    "type": "string"
                },
                {
                    "internalType": "string",
                    "name": "_party",
                    "type": "string"
                }
            ],
            "name": "addCandidate",
            "outputs": [],
            "stateMutability": "nonpayable",
            "type": "function"
        },
        {
            "inputs": [],
            "name": "admin",
            "outputs": [
                {
                    "internalType": "address",
                    "name": "",
                    "type": "address"
                }
            ],
            "stateMutability": "view",
            "type": "function"
        },
        {
            "inputs": [],
            "name": "authenticateVoter",
            "outputs": [
                {
                    "internalType": "bool",
                    "name": "",
                    "type": "bool"
                }
            ],
            "stateMutability": "view",
            "type": "function"
        },
        {
            "inputs": [
                {
                    "internalType": "uint256",
                    "name": "",
                    "type": "uint256"
                }
            ],
            "name": "candidates",
            "outputs": [
                {
                    "internalType": "uint256",
                    "name": "id",
                    "type": "uint256"
                },
                {
                    "internalType": "string",
                    "name": "name",
                    "type": "string"
                },
                {
                    "internalType": "string",
                    "name": "party",
                    "type": "string"
                },
                {
                    "internalType": "uint256",
                    "name": "voteCount",
                    "type": "uint256"
                }
            ],
            "stateMutability": "view",
            "type": "function"
        },
        {
            "inputs": [],
            "name": "candidatesCount",
            "outputs": [
                {
                    "internalType": "uint256",
                    "name": "",
                    "type": "uint256"
                }
            ],
            "stateMutability": "view",
            "type": "function"
        },
        {
            "inputs": [],
            "name": "getAllCandidates",
            "outputs": [
                {
                    "components": [
                        {
                            "internalType": "uint256",
                            "name": "id",
                            "type": "uint256"
                        },
                        {
                            "internalType": "string",
                            "name": "name",
                            "type": "string"
                        },
                        {
                            "internalType": "string",
                            "name": "party",
                            "type": "string"
                        },
                        {
                            "internalType": "uint256",
                            "name": "voteCount",
                            "type": "uint256"
                        }
                    ],
                    "internalType": "struct Voting.Candidate[]",
                    "name": "",
                    "type": "tuple[]"
                }
            ],
            "stateMutability": "view",
            "type": "function"
        },
        {
            "inputs": [],
            "name": "getAllVoters",
            "outputs": [
                {
                    "components": [
                        {
                            "internalType": "string",
                            "name": "fullName",
                            "type": "string"
                        },
                        {
                            "internalType": "bool",
                            "name": "isRegistered",
                            "type": "bool"
                        },
                        {
                            "internalType": "bool",
                            "name": "hasVoted",
                            "type": "bool"
                        }
                    ],
                    "internalType": "struct Voting.Voter[]",
                    "name": "",
                    "type": "tuple[]"
                }
            ],
            "stateMutability": "view",
            "type": "function"
        },
        {
            "inputs": [
                {
                    "internalType": "uint256",
                    "name": "_candidateId",
                    "type": "uint256"
                }
            ],
            "name": "getCandidate",
            "outputs": [
                {
                    "internalType": "uint256",
                    "name": "",
                    "type": "uint256"
                },
                {
                    "internalType": "string",
                    "name": "",
                    "type": "string"
                },
                {
                    "internalType": "uint256",
                    "name": "",
                    "type": "uint256"
                }
            ],
            "stateMutability": "view",
            "type": "function"
        },
        {
            "inputs": [
                {
                    "internalType": "address",
                    "name": "_voterAddress",
                    "type": "address"
                }
            ],
            "name": "getVoter",
            "outputs": [
                {
                    "internalType": "string",
                    "name": "",
                    "type": "string"
                },
                {
                    "internalType": "bool",
                    "name": "",
                    "type": "bool"
                },
                {
                    "internalType": "bool",
                    "name": "",
                    "type": "bool"
                }
            ],
            "stateMutability": "view",
            "type": "function"
        },
        {
            "inputs": [],
            "name": "maxVotes",
            "outputs": [
                {
                    "internalType": "uint256",
                    "name": "",
                    "type": "uint256"
                }
            ],
            "stateMutability": "view",
            "type": "function"
        },
        {
            "inputs": [
                {
                    "internalType": "address",
                    "name": "_voterAddress",
                    "type": "address"
                },
                {
                    "internalType": "string",
                    "name": "_fullname",
                    "type": "string"
                }
            ],
            "name": "registerVoter",
            "outputs": [],
            "stateMutability": "nonpayable",
            "type": "function"
        },
        {
            "inputs": [
                {
                    "internalType": "uint256[]",
                    "name": "_candidateIds",
                    "type": "uint256[]"
                }
            ],
            "name": "vote",
            "outputs": [],
            "stateMutability": "nonpayable",
            "type": "function"
        },
        {
            "inputs": [
                {
                    "internalType": "uint256",
                    "name": "",
                    "type": "uint256"
                }
            ],
            "name": "voterAddresses",
            "outputs": [
                {
                    "internalType": "address",
                    "name": "",
                    "type": "address"
                }
            ],
            "stateMutability": "view",
            "type": "function"
        },
        {
            "inputs": [
                {
                    "internalType": "address",
                    "name": "",
                    "type": "address"
                }
            ],
            "name": "voters",
            "outputs": [
                {
                    "internalType": "string",
                    "name": "fullName",
                    "type": "string"
                },
                {
                    "internalType": "bool",
                    "name": "isRegistered",
                    "type": "bool"
                },
                {
                    "internalType": "bool",
                    "name": "hasVoted",
                    "type": "bool"
                }
            ],
            "stateMutability": "view",
            "type": "function"
        }
    ],
    "bytecode": "0x6080604052348015600f57600080fd5b506002600481905550600060038190555033600560006101000a81548173ffffffffffffffffffffffffffffffffffffffff021916908373ffffffffffffffffffffffffffffffffffffffff160217905550612220806100706000396000f3fe608060405234801561001057600080fd5b50600436106100ea5760003560e01c8063777c3acf1161008c578063d4f50f9811610066578063d4f50f9814610254578063dd0e237314610286578063ebbb4f84146102b6578063f851a440146102d2576100ea565b8063777c3acf146101e8578063a3ec138d14610206578063ce11f2bb14610238576100ea565b80632e6997fe116100c85780632e6997fe146101475780633477ee2e1461016557806335b8e8201461019857806335bbe70e146101ca576100ea565b806326541b56146100ef57806329db6b511461010b5780632d35a8a214610129575b600080fd5b61010960048036038101906101049190611391565b6102f0565b005b610113610417565b6040516101209190611424565b60405180910390f35b6101316104af565b60405161013e9190611458565b60405180910390f35b61014f6104b5565b60405161015c919061162d565b60405180910390f35b61017f600480360381019061017a919061167b565b6106a6565b60405161018f94939291906116f2565b60405180910390f35b6101b260048036038101906101ad919061167b565b6107e6565b6040516101c193929190611745565b60405180910390f35b6101d2610961565b6040516101df91906118a4565b60405180910390f35b6101f0610b53565b6040516101fd9190611458565b60405180910390f35b610220600480360381019061021b9190611924565b610b59565b60405161022f93929190611951565b60405180910390f35b610252600480360381019061024d9190611a57565b610c25565b005b61026e60048036038101906102699190611924565b610e9d565b60405161027d93929190611951565b60405180910390f35b6102a0600480360381019061029b919061167b565b610fd5565b6040516102ad9190611aaf565b60405180910390f35b6102d060048036038101906102cb9190611aca565b611014565b005b6102da6111c4565b6040516102e79190611aaf565b60405180910390f35b600560009054906101000a900473ffffffffffffffffffffffffffffffffffffffff1673ffffffffffffffffffffffffffffffffffffffff163373ffffffffffffffffffffffffffffffffffffffff1614610380576040517f08c379a000000000000000000000000000000000000000000000000000000000815260040161037790611b98565b60405180910390fd5b60405180608001604052806003548152602001838152602001828152602001600081525060008060035481526020019081526020016000206000820151816000015560208201518160010190816103d79190611dc4565b5060408201518160020190816103ed9190611dc4565b50606082015181600301559050506003600081548092919061040e90611ec5565b91905055505050565b6000600160003373ffffffffffffffffffffffffffffffffffffffff1673ffffffffffffffffffffffffffffffffffffffff16815260200190815260200160002060010160009054906101000a900460ff166104a8576040517f08c379a000000000000000000000000000000000000000000000000000000000815260040161049f90611f59565b60405180910390fd5b6001905090565b60035481565b6060600060035467ffffffffffffffff8111156104d5576104d4611266565b5b60405190808252806020026020018201604052801561050e57816020015b6104fb6111ea565b8152602001906001900390816104f35790505b50905060005b60035481101561069e576000808281526020019081526020016000206040518060800160405290816000820154815260200160018201805461055590611be7565b80601f016020809104026020016040519081016040528092919081815260200182805461058190611be7565b80156105ce5780601f106105a3576101008083540402835291602001916105ce565b820191906000526020600020905b8154815290600101906020018083116105b157829003601f168201915b505050505081526020016002820180546105e790611be7565b80601f016020809104026020016040519081016040528092919081815260200182805461061390611be7565b80156106605780601f1061063557610100808354040283529160200191610660565b820191906000526020600020905b81548152906001019060200180831161064357829003601f168201915b5050505050815260200160038201548152505082828151811061068657610685611f79565b5b60200260200101819052508080600101915050610514565b508091505090565b60006020528060005260406000206000915090508060000154908060010180546106cf90611be7565b80601f01602080910402602001604051908101604052809291908181526020018280546106fb90611be7565b80156107485780601f1061071d57610100808354040283529160200191610748565b820191906000526020600020905b81548152906001019060200180831161072b57829003601f168201915b50505050509080600201805461075d90611be7565b80601f016020809104026020016040519081016040528092919081815260200182805461078990611be7565b80156107d65780601f106107ab576101008083540402835291602001916107d6565b820191906000526020600020905b8154815290600101906020018083116107b957829003601f168201915b5050505050908060030154905084565b600060606000806000808681526020019081526020016000206040518060800160405290816000820154815260200160018201805461082490611be7565b80601f016020809104026020016040519081016040528092919081815260200182805461085090611be7565b801561089d5780601f106108725761010080835404028352916020019161089d565b820191906000526020600020905b81548152906001019060200180831161088057829003601f168201915b505050505081526020016002820180546108b690611be7565b80601f01602080910402602001604051908101604052809291908181526020018280546108e290611be7565b801561092f5780601f106109045761010080835404028352916020019161092f565b820191906000526020600020905b81548152906001019060200180831161091257829003601f168201915b505050505081526020016003820154815250509050806000015181602001518260600151935093509350509193909250565b6060600060028054905067ffffffffffffffff81111561098457610983611266565b5b6040519080825280602002602001820160405280156109bd57816020015b6109aa611212565b8152602001906001900390816109a25790505b50905060005b600280549050811015610b4b5760016000600283815481106109e8576109e7611f79565b5b9060005260206000200160009054906101000a900473ffffffffffffffffffffffffffffffffffffffff1673ffffffffffffffffffffffffffffffffffffffff1673ffffffffffffffffffffffffffffffffffffffff168152602001908152602001600020604051806060016040529081600082018054610a6890611be7565b80601f0160208091040260200160405190810160405280929190818152602001828054610a9490611be7565b8015610ae15780601f10610ab657610100808354040283529160200191610ae1565b820191906000526020600020905b815481529060010190602001808311610ac457829003601f168201915b505050505081526020016001820160009054906101000a900460ff161515151581526020016001820160019054906101000a900460ff161515151581525050828281518110610b3357610b32611f79565b5b602002602001018190525080806001019150506109c3565b508091505090565b60045481565b6001602052806000526040600020600091509050806000018054610b7c90611be7565b80601f0160208091040260200160405190810160405280929190818152602001828054610ba890611be7565b8015610bf55780601f10610bca57610100808354040283529160200191610bf5565b820191906000526020600020905b815481529060010190602001808311610bd857829003601f168201915b5050505050908060010160009054906101000a900460ff16908060010160019054906101000a900460ff16905083565b600160003373ffffffffffffffffffffffffffffffffffffffff1673ffffffffffffffffffffffffffffffffffffffff16815260200190815260200160002060010160009054906101000a900460ff16610cb4576040517f08c379a0000000000000000000000000000000000000000000000000000000008152600401610cab90611ff4565b60405180910390fd5b600160003373ffffffffffffffffffffffffffffffffffffffff1673ffffffffffffffffffffffffffffffffffffffff16815260200190815260200160002060010160019054906101000a900460ff1615610d44576040517f08c379a0000000000000000000000000000000000000000000000000000000008152600401610d3b90612060565b60405180910390fd5b60045481511115610d8a576040517f08c379a0000000000000000000000000000000000000000000000000000000008152600401610d81906120f2565b60405180910390fd5b60005b8151811015610e3f576000828281518110610dab57610daa611f79565b5b6020026020010151905060008110158015610dc7575060035481105b610e06576040517f08c379a0000000000000000000000000000000000000000000000000000000008152600401610dfd9061215e565b60405180910390fd5b6000808281526020019081526020016000206003016000815480929190610e2c90611ec5565b9190505550508080600101915050610d8d565b5060018060003373ffffffffffffffffffffffffffffffffffffffff1673ffffffffffffffffffffffffffffffffffffffff16815260200190815260200160002060010160016101000a81548160ff02191690831515021790555050565b60606000806000600160008673ffffffffffffffffffffffffffffffffffffffff1673ffffffffffffffffffffffffffffffffffffffff168152602001908152602001600020604051806060016040529081600082018054610efe90611be7565b80601f0160208091040260200160405190810160405280929190818152602001828054610f2a90611be7565b8015610f775780601f10610f4c57610100808354040283529160200191610f77565b820191906000526020600020905b815481529060010190602001808311610f5a57829003601f168201915b505050505081526020016001820160009054906101000a900460ff161515151581526020016001820160019054906101000a900460ff1615151515815250509050806000015181602001518260400151935093509350509193909250565b60028181548110610fe557600080fd5b906000526020600020016000915054906101000a900473ffffffffffffffffffffffffffffffffffffffff1681565b600160008373ffffffffffffffffffffffffffffffffffffffff1673ffffffffffffffffffffffffffffffffffffffff16815260200190815260200160002060010160009054906101000a900460ff16156110a4576040517f08c379a000000000000000000000000000000000000000000000000000000000815260040161109b906121ca565b60405180910390fd5b604051806060016040528082815260200160011515815260200160001515815250600160008473ffffffffffffffffffffffffffffffffffffffff1673ffffffffffffffffffffffffffffffffffffffff16815260200190815260200160002060008201518160000190816111199190611dc4565b5060208201518160010160006101000a81548160ff02191690831515021790555060408201518160010160016101000a81548160ff0219169083151502179055509050506002829080600181540180825580915050600190039060005260206000200160009091909190916101000a81548173ffffffffffffffffffffffffffffffffffffffff021916908373ffffffffffffffffffffffffffffffffffffffff1602179055505050565b600560009054906101000a900473ffffffffffffffffffffffffffffffffffffffff1681565b6040518060800160405280600081526020016060815260200160608152602001600081525090565b6040518060600160405280606081526020016000151581526020016000151581525090565b6000604051905090565b600080fd5b600080fd5b600080fd5b600080fd5b6000601f19601f8301169050919050565b7f4e487b7100000000000000000000000000000000000000000000000000000000600052604160045260246000fd5b61129e82611255565b810181811067ffffffffffffffff821117156112bd576112bc611266565b5b80604052505050565b60006112d0611237565b90506112dc8282611295565b919050565b600067ffffffffffffffff8211156112fc576112fb611266565b5b61130582611255565b9050602081019050919050565b82818337600083830152505050565b600061133461132f846112e1565b6112c6565b9050828152602081018484840111156113505761134f611250565b5b61135b848285611312565b509392505050565b600082601f8301126113785761137761124b565b5b8135611388848260208601611321565b91505092915050565b600080604083850312156113a8576113a7611241565b5b600083013567ffffffffffffffff8111156113c6576113c5611246565b5b6113d285828601611363565b925050602083013567ffffffffffffffff8111156113f3576113f2611246565b5b6113ff85828601611363565b9150509250929050565b60008115159050919050565b61141e81611409565b82525050565b60006020820190506114396000830184611415565b92915050565b6000819050919050565b6114528161143f565b82525050565b600060208201905061146d6000830184611449565b92915050565b600081519050919050565b600082825260208201905092915050565b6000819050602082019050919050565b6114a88161143f565b82525050565b600081519050919050565b600082825260208201905092915050565b60005b838110156114e85780820151818401526020810190506114cd565b60008484015250505050565b60006114ff826114ae565b61150981856114b9565b93506115198185602086016114ca565b61152281611255565b840191505092915050565b6000608083016000830151611545600086018261149f565b506020830151848203602086015261155d82826114f4565b9150506040830151848203604086015261157782826114f4565b915050606083015161158c606086018261149f565b508091505092915050565b60006115a3838361152d565b905092915050565b6000602082019050919050565b60006115c382611473565b6115cd818561147e565b9350836020820285016115df8561148f565b8060005b8581101561161b57848403895281516115fc8582611597565b9450611607836115ab565b925060208a019950506001810190506115e3565b50829750879550505050505092915050565b6000602082019050818103600083015261164781846115b8565b905092915050565b6116588161143f565b811461166357600080fd5b50565b6000813590506116758161164f565b92915050565b60006020828403121561169157611690611241565b5b600061169f84828501611666565b91505092915050565b600082825260208201905092915050565b60006116c4826114ae565b6116ce81856116a8565b93506116de8185602086016114ca565b6116e781611255565b840191505092915050565b60006080820190506117076000830187611449565b818103602083015261171981866116b9565b9050818103604083015261172d81856116b9565b905061173c6060830184611449565b95945050505050565b600060608201905061175a6000830186611449565b818103602083015261176c81856116b9565b905061177b6040830184611449565b949350505050565b600081519050919050565b600082825260208201905092915050565b6000819050602082019050919050565b6117b881611409565b82525050565b600060608301600083015184820360008601526117db82826114f4565b91505060208301516117f060208601826117af565b50604083015161180360408601826117af565b508091505092915050565b600061181a83836117be565b905092915050565b6000602082019050919050565b600061183a82611783565b611844818561178e565b9350836020820285016118568561179f565b8060005b858110156118925784840389528151611873858261180e565b945061187e83611822565b925060208a0199505060018101905061185a565b50829750879550505050505092915050565b600060208201905081810360008301526118be818461182f565b905092915050565b600073ffffffffffffffffffffffffffffffffffffffff82169050919050565b60006118f1826118c6565b9050919050565b611901816118e6565b811461190c57600080fd5b50565b60008135905061191e816118f8565b92915050565b60006020828403121561193a57611939611241565b5b60006119488482850161190f565b91505092915050565b6000606082019050818103600083015261196b81866116b9565b905061197a6020830185611415565b6119876040830184611415565b949350505050565b600067ffffffffffffffff8211156119aa576119a9611266565b5b602082029050602081019050919050565b600080fd5b60006119d36119ce8461198f565b6112c6565b905080838252602082019050602084028301858111156119f6576119f56119bb565b5b835b81811015611a1f5780611a0b8882611666565b8452602084019350506020810190506119f8565b5050509392505050565b600082601f830112611a3e57611a3d61124b565b5b8135611a4e8482602086016119c0565b91505092915050565b600060208284031215611a6d57611a6c611241565b5b600082013567ffffffffffffffff811115611a8b57611a8a611246565b5b611a9784828501611a29565b91505092915050565b611aa9816118e6565b82525050565b6000602082019050611ac46000830184611aa0565b92915050565b60008060408385031215611ae157611ae0611241565b5b6000611aef8582860161190f565b925050602083013567ffffffffffffffff811115611b1057611b0f611246565b5b611b1c85828601611363565b9150509250929050565b7f4f6e6c792061646d696e2063616e20706572666f726d2074686973206163746960008201527f6f6e2e0000000000000000000000000000000000000000000000000000000000602082015250565b6000611b826023836116a8565b9150611b8d82611b26565b604082019050919050565b60006020820190508181036000830152611bb181611b75565b9050919050565b7f4e487b7100000000000000000000000000000000000000000000000000000000600052602260045260246000fd5b60006002820490506001821680611bff57607f821691505b602082108103611c1257611c11611bb8565b5b50919050565b60008190508160005260206000209050919050565b60006020601f8301049050919050565b600082821b905092915050565b600060088302611c7a7fffffffffffffffffffffffffffffffffffffffffffffffffffffffffffffffff82611c3d565b611c848683611c3d565b95508019841693508086168417925050509392505050565b6000819050919050565b6000611cc1611cbc611cb78461143f565b611c9c565b61143f565b9050919050565b6000819050919050565b611cdb83611ca6565b611cef611ce782611cc8565b848454611c4a565b825550505050565b600090565b611d04611cf7565b611d0f818484611cd2565b505050565b5b81811015611d3357611d28600082611cfc565b600181019050611d15565b5050565b601f821115611d7857611d4981611c18565b611d5284611c2d565b81016020851015611d61578190505b611d75611d6d85611c2d565b830182611d14565b50505b505050565b600082821c905092915050565b6000611d9b60001984600802611d7d565b1980831691505092915050565b6000611db48383611d8a565b9150826002028217905092915050565b611dcd826114ae565b67ffffffffffffffff811115611de657611de5611266565b5b611df08254611be7565b611dfb828285611d37565b600060209050601f831160018114611e2e5760008415611e1c578287015190505b611e268582611da8565b865550611e8e565b601f198416611e3c86611c18565b60005b82811015611e6457848901518255600182019150602085019450602081019050611e3f565b86831015611e815784890151611e7d601f891682611d8a565b8355505b6001600288020188555050505b505050505050565b7f4e487b7100000000000000000000000000000000000000000000000000000000600052601160045260246000fd5b6000611ed08261143f565b91507fffffffffffffffffffffffffffffffffffffffffffffffffffffffffffffffff8203611f0257611f01611e96565b5b600182019050919050565b7f566f746572206e6f7420726567697374657265642e0000000000000000000000600082015250565b6000611f436015836116a8565b9150611f4e82611f0d565b602082019050919050565b60006020820190508181036000830152611f7281611f36565b9050919050565b7f4e487b7100000000000000000000000000000000000000000000000000000000600052603260045260246000fd5b7f596f7520617265206e6f74207265676973746572656420746f20766f74652e00600082015250565b6000611fde601f836116a8565b9150611fe982611fa8565b602082019050919050565b6000602082019050818103600083015261200d81611fd1565b9050919050565b7f596f75206861766520616c726561647920766f7465642e000000000000000000600082015250565b600061204a6017836116a8565b915061205582612014565b602082019050919050565b600060208201905081810360008301526120798161203d565b9050919050565b7f4578636565646564206d6178696d756d206e756d626572206f6620766f74657360008201527f2e00000000000000000000000000000000000000000000000000000000000000602082015250565b60006120dc6021836116a8565b91506120e782612080565b604082019050919050565b6000602082019050818103600083015261210b816120cf565b9050919050565b7f496e76616c69642063616e6469646174652049442e0000000000000000000000600082015250565b60006121486015836116a8565b915061215382612112565b602082019050919050565b600060208201905081810360008301526121778161213b565b9050919050565b7f566f74657220616c726561647920726567697374657265642e00000000000000600082015250565b60006121b46019836116a8565b91506121bf8261217e565b602082019050919050565b600060208201905081810360008301526121e3816121a7565b905091905056fea2646970667358221220752c51e49894cd41501065b019b2fe5d9850b3359bf75b362b66e3a1fb55195f64736f6c634300081c0033",
    "linkReferences": {},
    "deployedLinkReferences": {}
}